{
  "contracts/Withdrawable.sol": {
    "Withdrawable": {
      "abi": [
        {
          "anonymous": false,
          "inputs": [
            {
              "indexed": true,
              "internalType": "address",
              "name": "_from",
              "type": "address"
            },
            {
              "indexed": true,
              "internalType": "address",
              "name": "_assetAddress",
              "type": "address"
            },
            {
              "indexed": false,
              "internalType": "uint256",
              "name": "amount",
              "type": "uint256"
            }
          ],
          "name": "LogWithdraw",
          "type": "event"
        },
        {
          "anonymous": false,
          "inputs": [
            {
              "indexed": true,
              "internalType": "address",
              "name": "previousOwner",
              "type": "address"
            },
            {
              "indexed": true,
              "internalType": "address",
              "name": "newOwner",
              "type": "address"
            }
          ],
          "name": "OwnershipTransferred",
          "type": "event"
        },
        {
          "inputs": [],
          "name": "owner",
          "outputs": [
            {
              "internalType": "address",
              "name": "",
              "type": "address"
            }
          ],
          "stateMutability": "view",
          "type": "function"
        },
        {
          "inputs": [],
          "name": "renounceOwnership",
          "outputs": [],
          "stateMutability": "nonpayable",
          "type": "function"
        },
        {
          "inputs": [
            {
              "internalType": "address",
              "name": "newOwner",
              "type": "address"
            }
          ],
          "name": "transferOwnership",
          "outputs": [],
          "stateMutability": "nonpayable",
          "type": "function"
        },
        {
          "inputs": [
            {
              "internalType": "address",
              "name": "_assetAddress",
              "type": "address"
            }
          ],
          "name": "withdraw",
          "outputs": [],
          "stateMutability": "nonpayable",
          "type": "function"
        }
      ],
      "evm": {
        "bytecode": {
          "linkReferences": {},
          "object": "608060405260006100176001600160e01b0361006616565b600080546001600160a01b0319166001600160a01b0383169081178255604051929350917f8be0079c531659141344cd1fd0a4f28419497f9722a3daafe3b4186f6b6457e0908290a35061006a565b3390565b610812806100796000396000f3fe608060405234801561001057600080fd5b506004361061004c5760003560e01c806351cff8d914610051578063715018a6146100795780638da5cb5b14610081578063f2fde38b146100a5575b600080fd5b6100776004803603602081101561006757600080fd5b50356001600160a01b03166100cb565b005b61007761025a565b610089610318565b604080516001600160a01b039092168252519081900360200190f35b610077600480360360208110156100bb57600080fd5b50356001600160a01b0316610327565b6100d361043b565b6001600160a01b03166100e4610318565b6001600160a01b03161461013f576040805162461bcd60e51b815260206004820181905260248201527f4f776e61626c653a2063616c6c6572206973206e6f7420746865206f776e6572604482015290519081900360640190fd5b60006001600160a01b038216610188575060405130803191339083156108fc029084906000818181858888f19350505050158015610181573d6000803e3d6000fd5b5050610216565b604080516370a0823160e01b815230600482015290516001600160a01b038416916370a08231916024808301926020929190829003018186803b1580156101ce57600080fd5b505afa1580156101e2573d6000803e3d6000fd5b505050506040513d60208110156101f857600080fd5b505190506102166001600160a01b038316338363ffffffff61043f16565b6040805182815290516001600160a01b0384169133917f9207361cc2a04b9c7a06691df1eb87c6a63957ae88bf01d0d18c81e3d12720999181900360200190a35050565b61026261043b565b6001600160a01b0316610273610318565b6001600160a01b0316146102ce576040805162461bcd60e51b815260206004820181905260248201527f4f776e61626c653a2063616c6c6572206973206e6f7420746865206f776e6572604482015290519081900360640190fd5b600080546040516001600160a01b03909116907f8be0079c531659141344cd1fd0a4f28419497f9722a3daafe3b4186f6b6457e0908390a3600080546001600160a01b0319169055565b6000546001600160a01b031690565b61032f61043b565b6001600160a01b0316610340610318565b6001600160a01b03161461039b576040805162461bcd60e51b815260206004820181905260248201527f4f776e61626c653a2063616c6c6572206973206e6f7420746865206f776e6572604482015290519081900360640190fd5b6001600160a01b0381166103e05760405162461bcd60e51b81526004018080602001828103825260268152602001806107676026913960400191505060405180910390fd5b600080546040516001600160a01b03808516939216917f8be0079c531659141344cd1fd0a4f28419497f9722a3daafe3b4186f6b6457e091a3600080546001600160a01b0319166001600160a01b0392909216919091179055565b3390565b604080516001600160a01b038416602482015260448082018490528251808303909101815260649091019091526020810180516001600160e01b031663a9059cbb60e01b179052610491908490610496565b505050565b60606104eb826040518060400160405280602081526020017f5361666545524332303a206c6f772d6c6576656c2063616c6c206661696c6564815250856001600160a01b03166105479092919063ffffffff16565b8051909150156104915780806020019051602081101561050a57600080fd5b50516104915760405162461bcd60e51b815260040180806020018281038252602a8152602001806107b3602a913960400191505060405180910390fd5b60606105568484600085610560565b90505b9392505050565b6060824710156105a15760405162461bcd60e51b815260040180806020018281038252602681526020018061078d6026913960400191505060405180910390fd5b6105aa856106bc565b6105fb576040805162461bcd60e51b815260206004820152601d60248201527f416464726573733a2063616c6c20746f206e6f6e2d636f6e7472616374000000604482015290519081900360640190fd5b60006060866001600160a01b031685876040518082805190602001908083835b6020831061063a5780518252601f19909201916020918201910161061b565b6001836020036101000a03801982511681845116808217855250505050505090500191505060006040518083038185875af1925050503d806000811461069c576040519150601f19603f3d011682016040523d82523d6000602084013e6106a1565b606091505b50915091506106b18282866106c2565b979650505050505050565b3b151590565b606083156106d1575081610559565b8251156106e15782518084602001fd5b8160405162461bcd60e51b81526004018080602001828103825283818151815260200191508051906020019080838360005b8381101561072b578181015183820152602001610713565b50505050905090810190601f1680156107585780820380516001836020036101000a031916815260200191505b509250505060405180910390fdfe4f776e61626c653a206e6577206f776e657220697320746865207a65726f2061646472657373416464726573733a20696e73756666696369656e742062616c616e636520666f722063616c6c5361666545524332303a204552433230206f7065726174696f6e20646964206e6f742073756363656564a2646970667358221220260bc0978dc63992ca0e95d33cba367d950baa50ac8babb7637d8a9ce4caa29664736f6c63430006060033",
          "opcodes": "PUSH1 0x80 PUSH1 0x40 MSTORE PUSH1 0x0 PUSH2 0x17 PUSH1 0x1 PUSH1 0x1 PUSH1 0xE0 SHL SUB PUSH2 0x66 AND JUMP JUMPDEST PUSH1 0x0 DUP1 SLOAD PUSH1 0x1 PUSH1 0x1 PUSH1 0xA0 SHL SUB NOT AND PUSH1 0x1 PUSH1 0x1 PUSH1 0xA0 SHL SUB DUP4 AND SWAP1 DUP2 OR DUP3 SSTORE PUSH1 0x40 MLOAD SWAP3 SWAP4 POP SWAP2 PUSH32 0x8BE0079C531659141344CD1FD0A4F28419497F9722A3DAAFE3B4186F6B6457E0 SWAP1 DUP3 SWAP1 LOG3 POP PUSH2 0x6A JUMP JUMPDEST CALLER SWAP1 JUMP JUMPDEST PUSH2 0x812 DUP1 PUSH2 0x79 PUSH1 0x0 CODECOPY PUSH1 0x0 RETURN INVALID PUSH1 0x80 PUSH1 0x40 MSTORE CALLVALUE DUP1 ISZERO PUSH2 0x10 JUMPI PUSH1 0x0 DUP1 REVERT JUMPDEST POP PUSH1 0x4 CALLDATASIZE LT PUSH2 0x4C JUMPI PUSH1 0x0 CALLDATALOAD PUSH1 0xE0 SHR DUP1 PUSH4 0x51CFF8D9 EQ PUSH2 0x51 JUMPI DUP1 PUSH4 0x715018A6 EQ PUSH2 0x79 JUMPI DUP1 PUSH4 0x8DA5CB5B EQ PUSH2 0x81 JUMPI DUP1 PUSH4 0xF2FDE38B EQ PUSH2 0xA5 JUMPI JUMPDEST PUSH1 0x0 DUP1 REVERT JUMPDEST PUSH2 0x77 PUSH1 0x4 DUP1 CALLDATASIZE SUB PUSH1 0x20 DUP2 LT ISZERO PUSH2 0x67 JUMPI PUSH1 0x0 DUP1 REVERT JUMPDEST POP CALLDATALOAD PUSH1 0x1 PUSH1 0x1 PUSH1 0xA0 SHL SUB AND PUSH2 0xCB JUMP JUMPDEST STOP JUMPDEST PUSH2 0x77 PUSH2 0x25A JUMP JUMPDEST PUSH2 0x89 PUSH2 0x318 JUMP JUMPDEST PUSH1 0x40 DUP1 MLOAD PUSH1 0x1 PUSH1 0x1 PUSH1 0xA0 SHL SUB SWAP1 SWAP3 AND DUP3 MSTORE MLOAD SWAP1 DUP2 SWAP1 SUB PUSH1 0x20 ADD SWAP1 RETURN JUMPDEST PUSH2 0x77 PUSH1 0x4 DUP1 CALLDATASIZE SUB PUSH1 0x20 DUP2 LT ISZERO PUSH2 0xBB JUMPI PUSH1 0x0 DUP1 REVERT JUMPDEST POP CALLDATALOAD PUSH1 0x1 PUSH1 0x1 PUSH1 0xA0 SHL SUB AND PUSH2 0x327 JUMP JUMPDEST PUSH2 0xD3 PUSH2 0x43B JUMP JUMPDEST PUSH1 0x1 PUSH1 0x1 PUSH1 0xA0 SHL SUB AND PUSH2 0xE4 PUSH2 0x318 JUMP JUMPDEST PUSH1 0x1 PUSH1 0x1 PUSH1 0xA0 SHL SUB AND EQ PUSH2 0x13F JUMPI PUSH1 0x40 DUP1 MLOAD PUSH3 0x461BCD PUSH1 0xE5 SHL DUP2 MSTORE PUSH1 0x20 PUSH1 0x4 DUP3 ADD DUP2 SWAP1 MSTORE PUSH1 0x24 DUP3 ADD MSTORE PUSH32 0x4F776E61626C653A2063616C6C6572206973206E6F7420746865206F776E6572 PUSH1 0x44 DUP3 ADD MSTORE SWAP1 MLOAD SWAP1 DUP2 SWAP1 SUB PUSH1 0x64 ADD SWAP1 REVERT JUMPDEST PUSH1 0x0 PUSH1 0x1 PUSH1 0x1 PUSH1 0xA0 SHL SUB DUP3 AND PUSH2 0x188 JUMPI POP PUSH1 0x40 MLOAD ADDRESS DUP1 BALANCE SWAP2 CALLER SWAP1 DUP4 ISZERO PUSH2 0x8FC MUL SWAP1 DUP5 SWAP1 PUSH1 0x0 DUP2 DUP2 DUP2 DUP6 DUP9 DUP9 CALL SWAP4 POP POP POP POP ISZERO DUP1 ISZERO PUSH2 0x181 JUMPI RETURNDATASIZE PUSH1 0x0 DUP1 RETURNDATACOPY RETURNDATASIZE PUSH1 0x0 REVERT JUMPDEST POP POP PUSH2 0x216 JUMP JUMPDEST PUSH1 0x40 DUP1 MLOAD PUSH4 0x70A08231 PUSH1 0xE0 SHL DUP2 MSTORE ADDRESS PUSH1 0x4 DUP3 ADD MSTORE SWAP1 MLOAD PUSH1 0x1 PUSH1 0x1 PUSH1 0xA0 SHL SUB DUP5 AND SWAP2 PUSH4 0x70A08231 SWAP2 PUSH1 0x24 DUP1 DUP4 ADD SWAP3 PUSH1 0x20 SWAP3 SWAP2 SWAP1 DUP3 SWAP1 SUB ADD DUP2 DUP7 DUP1 EXTCODESIZE ISZERO DUP1 ISZERO PUSH2 0x1CE JUMPI PUSH1 0x0 DUP1 REVERT JUMPDEST POP GAS STATICCALL ISZERO DUP1 ISZERO PUSH2 0x1E2 JUMPI RETURNDATASIZE PUSH1 0x0 DUP1 RETURNDATACOPY RETURNDATASIZE PUSH1 0x0 REVERT JUMPDEST POP POP POP POP PUSH1 0x40 MLOAD RETURNDATASIZE PUSH1 0x20 DUP2 LT ISZERO PUSH2 0x1F8 JUMPI PUSH1 0x0 DUP1 REVERT JUMPDEST POP MLOAD SWAP1 POP PUSH2 0x216 PUSH1 0x1 PUSH1 0x1 PUSH1 0xA0 SHL SUB DUP4 AND CALLER DUP4 PUSH4 0xFFFFFFFF PUSH2 0x43F AND JUMP JUMPDEST PUSH1 0x40 DUP1 MLOAD DUP3 DUP2 MSTORE SWAP1 MLOAD PUSH1 0x1 PUSH1 0x1 PUSH1 0xA0 SHL SUB DUP5 AND SWAP2 CALLER SWAP2 PUSH32 0x9207361CC2A04B9C7A06691DF1EB87C6A63957AE88BF01D0D18C81E3D1272099 SWAP2 DUP2 SWAP1 SUB PUSH1 0x20 ADD SWAP1 LOG3 POP POP JUMP JUMPDEST PUSH2 0x262 PUSH2 0x43B JUMP JUMPDEST PUSH1 0x1 PUSH1 0x1 PUSH1 0xA0 SHL SUB AND PUSH2 0x273 PUSH2 0x318 JUMP JUMPDEST PUSH1 0x1 PUSH1 0x1 PUSH1 0xA0 SHL SUB AND EQ PUSH2 0x2CE JUMPI PUSH1 0x40 DUP1 MLOAD PUSH3 0x461BCD PUSH1 0xE5 SHL DUP2 MSTORE PUSH1 0x20 PUSH1 0x4 DUP3 ADD DUP2 SWAP1 MSTORE PUSH1 0x24 DUP3 ADD MSTORE PUSH32 0x4F776E61626C653A2063616C6C6572206973206E6F7420746865206F776E6572 PUSH1 0x44 DUP3 ADD MSTORE SWAP1 MLOAD SWAP1 DUP2 SWAP1 SUB PUSH1 0x64 ADD SWAP1 REVERT JUMPDEST PUSH1 0x0 DUP1 SLOAD PUSH1 0x40 MLOAD PUSH1 0x1 PUSH1 0x1 PUSH1 0xA0 SHL SUB SWAP1 SWAP2 AND SWAP1 PUSH32 0x8BE0079C531659141344CD1FD0A4F28419497F9722A3DAAFE3B4186F6B6457E0 SWAP1 DUP4 SWAP1 LOG3 PUSH1 0x0 DUP1 SLOAD PUSH1 0x1 PUSH1 0x1 PUSH1 0xA0 SHL SUB NOT AND SWAP1 SSTORE JUMP JUMPDEST PUSH1 0x0 SLOAD PUSH1 0x1 PUSH1 0x1 PUSH1 0xA0 SHL SUB AND SWAP1 JUMP JUMPDEST PUSH2 0x32F PUSH2 0x43B JUMP JUMPDEST PUSH1 0x1 PUSH1 0x1 PUSH1 0xA0 SHL SUB AND PUSH2 0x340 PUSH2 0x318 JUMP JUMPDEST PUSH1 0x1 PUSH1 0x1 PUSH1 0xA0 SHL SUB AND EQ PUSH2 0x39B JUMPI PUSH1 0x40 DUP1 MLOAD PUSH3 0x461BCD PUSH1 0xE5 SHL DUP2 MSTORE PUSH1 0x20 PUSH1 0x4 DUP3 ADD DUP2 SWAP1 MSTORE PUSH1 0x24 DUP3 ADD MSTORE PUSH32 0x4F776E61626C653A2063616C6C6572206973206E6F7420746865206F776E6572 PUSH1 0x44 DUP3 ADD MSTORE SWAP1 MLOAD SWAP1 DUP2 SWAP1 SUB PUSH1 0x64 ADD SWAP1 REVERT JUMPDEST PUSH1 0x1 PUSH1 0x1 PUSH1 0xA0 SHL SUB DUP2 AND PUSH2 0x3E0 JUMPI PUSH1 0x40 MLOAD PUSH3 0x461BCD PUSH1 0xE5 SHL DUP2 MSTORE PUSH1 0x4 ADD DUP1 DUP1 PUSH1 0x20 ADD DUP3 DUP2 SUB DUP3 MSTORE PUSH1 0x26 DUP2 MSTORE PUSH1 0x20 ADD DUP1 PUSH2 0x767 PUSH1 0x26 SWAP2 CODECOPY PUSH1 0x40 ADD SWAP2 POP POP PUSH1 0x40 MLOAD DUP1 SWAP2 SUB SWAP1 REVERT JUMPDEST PUSH1 0x0 DUP1 SLOAD PUSH1 0x40 MLOAD PUSH1 0x1 PUSH1 0x1 PUSH1 0xA0 SHL SUB DUP1 DUP6 AND SWAP4 SWAP3 AND SWAP2 PUSH32 0x8BE0079C531659141344CD1FD0A4F28419497F9722A3DAAFE3B4186F6B6457E0 SWAP2 LOG3 PUSH1 0x0 DUP1 SLOAD PUSH1 0x1 PUSH1 0x1 PUSH1 0xA0 SHL SUB NOT AND PUSH1 0x1 PUSH1 0x1 PUSH1 0xA0 SHL SUB SWAP3 SWAP1 SWAP3 AND SWAP2 SWAP1 SWAP2 OR SWAP1 SSTORE JUMP JUMPDEST CALLER SWAP1 JUMP JUMPDEST PUSH1 0x40 DUP1 MLOAD PUSH1 0x1 PUSH1 0x1 PUSH1 0xA0 SHL SUB DUP5 AND PUSH1 0x24 DUP3 ADD MSTORE PUSH1 0x44 DUP1 DUP3 ADD DUP5 SWAP1 MSTORE DUP3 MLOAD DUP1 DUP4 SUB SWAP1 SWAP2 ADD DUP2 MSTORE PUSH1 0x64 SWAP1 SWAP2 ADD SWAP1 SWAP2 MSTORE PUSH1 0x20 DUP2 ADD DUP1 MLOAD PUSH1 0x1 PUSH1 0x1 PUSH1 0xE0 SHL SUB AND PUSH4 0xA9059CBB PUSH1 0xE0 SHL OR SWAP1 MSTORE PUSH2 0x491 SWAP1 DUP5 SWAP1 PUSH2 0x496 JUMP JUMPDEST POP POP POP JUMP JUMPDEST PUSH1 0x60 PUSH2 0x4EB DUP3 PUSH1 0x40 MLOAD DUP1 PUSH1 0x40 ADD PUSH1 0x40 MSTORE DUP1 PUSH1 0x20 DUP2 MSTORE PUSH1 0x20 ADD PUSH32 0x5361666545524332303A206C6F772D6C6576656C2063616C6C206661696C6564 DUP2 MSTORE POP DUP6 PUSH1 0x1 PUSH1 0x1 PUSH1 0xA0 SHL SUB AND PUSH2 0x547 SWAP1 SWAP3 SWAP2 SWAP1 PUSH4 0xFFFFFFFF AND JUMP JUMPDEST DUP1 MLOAD SWAP1 SWAP2 POP ISZERO PUSH2 0x491 JUMPI DUP1 DUP1 PUSH1 0x20 ADD SWAP1 MLOAD PUSH1 0x20 DUP2 LT ISZERO PUSH2 0x50A JUMPI PUSH1 0x0 DUP1 REVERT JUMPDEST POP MLOAD PUSH2 0x491 JUMPI PUSH1 0x40 MLOAD PUSH3 0x461BCD PUSH1 0xE5 SHL DUP2 MSTORE PUSH1 0x4 ADD DUP1 DUP1 PUSH1 0x20 ADD DUP3 DUP2 SUB DUP3 MSTORE PUSH1 0x2A DUP2 MSTORE PUSH1 0x20 ADD DUP1 PUSH2 0x7B3 PUSH1 0x2A SWAP2 CODECOPY PUSH1 0x40 ADD SWAP2 POP POP PUSH1 0x40 MLOAD DUP1 SWAP2 SUB SWAP1 REVERT JUMPDEST PUSH1 0x60 PUSH2 0x556 DUP5 DUP5 PUSH1 0x0 DUP6 PUSH2 0x560 JUMP JUMPDEST SWAP1 POP JUMPDEST SWAP4 SWAP3 POP POP POP JUMP JUMPDEST PUSH1 0x60 DUP3 SELFBALANCE LT ISZERO PUSH2 0x5A1 JUMPI PUSH1 0x40 MLOAD PUSH3 0x461BCD PUSH1 0xE5 SHL DUP2 MSTORE PUSH1 0x4 ADD DUP1 DUP1 PUSH1 0x20 ADD DUP3 DUP2 SUB DUP3 MSTORE PUSH1 0x26 DUP2 MSTORE PUSH1 0x20 ADD DUP1 PUSH2 0x78D PUSH1 0x26 SWAP2 CODECOPY PUSH1 0x40 ADD SWAP2 POP POP PUSH1 0x40 MLOAD DUP1 SWAP2 SUB SWAP1 REVERT JUMPDEST PUSH2 0x5AA DUP6 PUSH2 0x6BC JUMP JUMPDEST PUSH2 0x5FB JUMPI PUSH1 0x40 DUP1 MLOAD PUSH3 0x461BCD PUSH1 0xE5 SHL DUP2 MSTORE PUSH1 0x20 PUSH1 0x4 DUP3 ADD MSTORE PUSH1 0x1D PUSH1 0x24 DUP3 ADD MSTORE PUSH32 0x416464726573733A2063616C6C20746F206E6F6E2D636F6E7472616374000000 PUSH1 0x44 DUP3 ADD MSTORE SWAP1 MLOAD SWAP1 DUP2 SWAP1 SUB PUSH1 0x64 ADD SWAP1 REVERT JUMPDEST PUSH1 0x0 PUSH1 0x60 DUP7 PUSH1 0x1 PUSH1 0x1 PUSH1 0xA0 SHL SUB AND DUP6 DUP8 PUSH1 0x40 MLOAD DUP1 DUP3 DUP1 MLOAD SWAP1 PUSH1 0x20 ADD SWAP1 DUP1 DUP4 DUP4 JUMPDEST PUSH1 0x20 DUP4 LT PUSH2 0x63A JUMPI DUP1 MLOAD DUP3 MSTORE PUSH1 0x1F NOT SWAP1 SWAP3 ADD SWAP2 PUSH1 0x20 SWAP2 DUP3 ADD SWAP2 ADD PUSH2 0x61B JUMP JUMPDEST PUSH1 0x1 DUP4 PUSH1 0x20 SUB PUSH2 0x100 EXP SUB DUP1 NOT DUP3 MLOAD AND DUP2 DUP5 MLOAD AND DUP1 DUP3 OR DUP6 MSTORE POP POP POP POP POP POP SWAP1 POP ADD SWAP2 POP POP PUSH1 0x0 PUSH1 0x40 MLOAD DUP1 DUP4 SUB DUP2 DUP6 DUP8 GAS CALL SWAP3 POP POP POP RETURNDATASIZE DUP1 PUSH1 0x0 DUP2 EQ PUSH2 0x69C JUMPI PUSH1 0x40 MLOAD SWAP2 POP PUSH1 0x1F NOT PUSH1 0x3F RETURNDATASIZE ADD AND DUP3 ADD PUSH1 0x40 MSTORE RETURNDATASIZE DUP3 MSTORE RETURNDATASIZE PUSH1 0x0 PUSH1 0x20 DUP5 ADD RETURNDATACOPY PUSH2 0x6A1 JUMP JUMPDEST PUSH1 0x60 SWAP2 POP JUMPDEST POP SWAP2 POP SWAP2 POP PUSH2 0x6B1 DUP3 DUP3 DUP7 PUSH2 0x6C2 JUMP JUMPDEST SWAP8 SWAP7 POP POP POP POP POP POP POP JUMP JUMPDEST EXTCODESIZE ISZERO ISZERO SWAP1 JUMP JUMPDEST PUSH1 0x60 DUP4 ISZERO PUSH2 0x6D1 JUMPI POP DUP2 PUSH2 0x559 JUMP JUMPDEST DUP3 MLOAD ISZERO PUSH2 0x6E1 JUMPI DUP3 MLOAD DUP1 DUP5 PUSH1 0x20 ADD REVERT JUMPDEST DUP2 PUSH1 0x40 MLOAD PUSH3 0x461BCD PUSH1 0xE5 SHL DUP2 MSTORE PUSH1 0x4 ADD DUP1 DUP1 PUSH1 0x20 ADD DUP3 DUP2 SUB DUP3 MSTORE DUP4 DUP2 DUP2 MLOAD DUP2 MSTORE PUSH1 0x20 ADD SWAP2 POP DUP1 MLOAD SWAP1 PUSH1 0x20 ADD SWAP1 DUP1 DUP4 DUP4 PUSH1 0x0 JUMPDEST DUP4 DUP2 LT ISZERO PUSH2 0x72B JUMPI DUP2 DUP2 ADD MLOAD DUP4 DUP3 ADD MSTORE PUSH1 0x20 ADD PUSH2 0x713 JUMP JUMPDEST POP POP POP POP SWAP1 POP SWAP1 DUP2 ADD SWAP1 PUSH1 0x1F AND DUP1 ISZERO PUSH2 0x758 JUMPI DUP1 DUP3 SUB DUP1 MLOAD PUSH1 0x1 DUP4 PUSH1 0x20 SUB PUSH2 0x100 EXP SUB NOT AND DUP2 MSTORE PUSH1 0x20 ADD SWAP2 POP JUMPDEST POP SWAP3 POP POP POP PUSH1 0x40 MLOAD DUP1 SWAP2 SUB SWAP1 REVERT INVALID 0x4F PUSH24 0x6E61626C653A206E6577206F776E65722069732074686520 PUSH27 0x65726F2061646472657373416464726573733A20696E7375666669 PUSH4 0x69656E74 KECCAK256 PUSH3 0x616C61 PUSH15 0x636520666F722063616C6C53616665 GASLIMIT MSTORE NUMBER ORIGIN ADDRESS GASPRICE KECCAK256 GASLIMIT MSTORE NUMBER ORIGIN ADDRESS KECCAK256 PUSH16 0x7065726174696F6E20646964206E6F74 KECCAK256 PUSH20 0x756363656564A2646970667358221220260BC097 DUP14 0xC6 CODECOPY SWAP3 0xCA 0xE SWAP6 0xD3 EXTCODECOPY 0xBA CALLDATASIZE PUSH30 0x950BAA50AC8BABB7637D8A9CE4CAA29664736F6C63430006060033000000 "
        },
        "methodIdentifiers": {
          "owner()": "8da5cb5b",
          "renounceOwnership()": "715018a6",
          "transferOwnership(address)": "f2fde38b",
          "withdraw(address)": "51cff8d9"
        }
      }
    }
  }
}