{
  "_format": "hh-sol-artifact-1",
  "contractName": "Withdrawable",
  "sourceName": "contracts/Withdrawable.sol",
  "abi": [
    {
      "anonymous": false,
      "inputs": [
        {
          "indexed": true,
          "internalType": "address",
          "name": "_from",
          "type": "address"
        },
        {
          "indexed": true,
          "internalType": "address",
          "name": "_assetAddress",
          "type": "address"
        },
        {
          "indexed": false,
          "internalType": "uint256",
          "name": "amount",
          "type": "uint256"
        }
      ],
      "name": "LogWithdraw",
      "type": "event"
    },
    {
      "anonymous": false,
      "inputs": [
        {
          "indexed": true,
          "internalType": "address",
          "name": "previousOwner",
          "type": "address"
        },
        {
          "indexed": true,
          "internalType": "address",
          "name": "newOwner",
          "type": "address"
        }
      ],
      "name": "OwnershipTransferred",
      "type": "event"
    },
    {
      "inputs": [],
      "name": "owner",
      "outputs": [
        {
          "internalType": "address",
          "name": "",
          "type": "address"
        }
      ],
      "stateMutability": "view",
      "type": "function"
    },
    {
      "inputs": [],
      "name": "renounceOwnership",
      "outputs": [],
      "stateMutability": "nonpayable",
      "type": "function"
    },
    {
      "inputs": [
        {
          "internalType": "address",
          "name": "newOwner",
          "type": "address"
        }
      ],
      "name": "transferOwnership",
      "outputs": [],
      "stateMutability": "nonpayable",
      "type": "function"
    },
    {
      "inputs": [
        {
          "internalType": "address",
          "name": "_assetAddress",
          "type": "address"
        }
      ],
      "name": "withdraw",
      "outputs": [],
      "stateMutability": "nonpayable",
      "type": "function"
    }
  ],
  "bytecode": "0x608060405260006100176001600160e01b0361006616565b600080546001600160a01b0319166001600160a01b0383169081178255604051929350917f8be0079c531659141344cd1fd0a4f28419497f9722a3daafe3b4186f6b6457e0908290a35061006a565b3390565b610812806100796000396000f3fe608060405234801561001057600080fd5b506004361061004c5760003560e01c806351cff8d914610051578063715018a6146100795780638da5cb5b14610081578063f2fde38b146100a5575b600080fd5b6100776004803603602081101561006757600080fd5b50356001600160a01b03166100cb565b005b61007761025a565b610089610318565b604080516001600160a01b039092168252519081900360200190f35b610077600480360360208110156100bb57600080fd5b50356001600160a01b0316610327565b6100d361043b565b6001600160a01b03166100e4610318565b6001600160a01b03161461013f576040805162461bcd60e51b815260206004820181905260248201527f4f776e61626c653a2063616c6c6572206973206e6f7420746865206f776e6572604482015290519081900360640190fd5b60006001600160a01b038216610188575060405130803191339083156108fc029084906000818181858888f19350505050158015610181573d6000803e3d6000fd5b5050610216565b604080516370a0823160e01b815230600482015290516001600160a01b038416916370a08231916024808301926020929190829003018186803b1580156101ce57600080fd5b505afa1580156101e2573d6000803e3d6000fd5b505050506040513d60208110156101f857600080fd5b505190506102166001600160a01b038316338363ffffffff61043f16565b6040805182815290516001600160a01b0384169133917f9207361cc2a04b9c7a06691df1eb87c6a63957ae88bf01d0d18c81e3d12720999181900360200190a35050565b61026261043b565b6001600160a01b0316610273610318565b6001600160a01b0316146102ce576040805162461bcd60e51b815260206004820181905260248201527f4f776e61626c653a2063616c6c6572206973206e6f7420746865206f776e6572604482015290519081900360640190fd5b600080546040516001600160a01b03909116907f8be0079c531659141344cd1fd0a4f28419497f9722a3daafe3b4186f6b6457e0908390a3600080546001600160a01b0319169055565b6000546001600160a01b031690565b61032f61043b565b6001600160a01b0316610340610318565b6001600160a01b03161461039b576040805162461bcd60e51b815260206004820181905260248201527f4f776e61626c653a2063616c6c6572206973206e6f7420746865206f776e6572604482015290519081900360640190fd5b6001600160a01b0381166103e05760405162461bcd60e51b81526004018080602001828103825260268152602001806107676026913960400191505060405180910390fd5b600080546040516001600160a01b03808516939216917f8be0079c531659141344cd1fd0a4f28419497f9722a3daafe3b4186f6b6457e091a3600080546001600160a01b0319166001600160a01b0392909216919091179055565b3390565b604080516001600160a01b038416602482015260448082018490528251808303909101815260649091019091526020810180516001600160e01b031663a9059cbb60e01b179052610491908490610496565b505050565b60606104eb826040518060400160405280602081526020017f5361666545524332303a206c6f772d6c6576656c2063616c6c206661696c6564815250856001600160a01b03166105479092919063ffffffff16565b8051909150156104915780806020019051602081101561050a57600080fd5b50516104915760405162461bcd60e51b815260040180806020018281038252602a8152602001806107b3602a913960400191505060405180910390fd5b60606105568484600085610560565b90505b9392505050565b6060824710156105a15760405162461bcd60e51b815260040180806020018281038252602681526020018061078d6026913960400191505060405180910390fd5b6105aa856106bc565b6105fb576040805162461bcd60e51b815260206004820152601d60248201527f416464726573733a2063616c6c20746f206e6f6e2d636f6e7472616374000000604482015290519081900360640190fd5b60006060866001600160a01b031685876040518082805190602001908083835b6020831061063a5780518252601f19909201916020918201910161061b565b6001836020036101000a03801982511681845116808217855250505050505090500191505060006040518083038185875af1925050503d806000811461069c576040519150601f19603f3d011682016040523d82523d6000602084013e6106a1565b606091505b50915091506106b18282866106c2565b979650505050505050565b3b151590565b606083156106d1575081610559565b8251156106e15782518084602001fd5b8160405162461bcd60e51b81526004018080602001828103825283818151815260200191508051906020019080838360005b8381101561072b578181015183820152602001610713565b50505050905090810190601f1680156107585780820380516001836020036101000a031916815260200191505b509250505060405180910390fdfe4f776e61626c653a206e6577206f776e657220697320746865207a65726f2061646472657373416464726573733a20696e73756666696369656e742062616c616e636520666f722063616c6c5361666545524332303a204552433230206f7065726174696f6e20646964206e6f742073756363656564a2646970667358221220260bc0978dc63992ca0e95d33cba367d950baa50ac8babb7637d8a9ce4caa29664736f6c63430006060033",
  "linkReferences": {},
  "deployedLinkReferences": {}
}