{
  "_format": "hh-sol-artifact-1",
  "contractName": "UniswapTradeBot",
  "sourceName": "contracts/UniswapTradeBot.sol",
  "abi": [
    {
      "inputs": [
        {
          "internalType": "address",
          "name": "_factory",
          "type": "address"
        },
        {
          "internalType": "address",
          "name": "_sushiRouter",
          "type": "address"
        }
      ],
      "stateMutability": "nonpayable",
      "type": "constructor"
    },
    {
      "inputs": [],
      "name": "factory",
      "outputs": [
        {
          "internalType": "address",
          "name": "",
          "type": "address"
        }
      ],
      "stateMutability": "view",
      "type": "function"
    },
    {
      "inputs": [
        {
          "internalType": "address",
          "name": "token0",
          "type": "address"
        },
        {
          "internalType": "address",
          "name": "token1",
          "type": "address"
        },
        {
          "internalType": "uint256",
          "name": "amount0",
          "type": "uint256"
        },
        {
          "internalType": "uint256",
          "name": "amount1",
          "type": "uint256"
        }
      ],
      "name": "startArbitrage",
      "outputs": [],
      "stateMutability": "nonpayable",
      "type": "function"
    },
    {
      "inputs": [],
      "name": "sushiRouter",
      "outputs": [
        {
          "internalType": "contract IUniswapV2Router02",
          "name": "",
          "type": "address"
        }
      ],
      "stateMutability": "view",
      "type": "function"
    },
    {
      "inputs": [
        {
          "internalType": "address",
          "name": "_sender",
          "type": "address"
        },
        {
          "internalType": "uint256",
          "name": "_amount0",
          "type": "uint256"
        },
        {
          "internalType": "uint256",
          "name": "_amount1",
          "type": "uint256"
        },
        {
          "internalType": "bytes",
          "name": "_data",
          "type": "bytes"
        }
      ],
      "name": "uniswapV2Call",
      "outputs": [],
      "stateMutability": "nonpayable",
      "type": "function"
    },
    {
      "inputs": [],
      "name": "withdrawEther",
      "outputs": [],
      "stateMutability": "nonpayable",
      "type": "function"
    },
    {
      "inputs": [
        {
          "internalType": "address",
          "name": "_tokenContract",
          "type": "address"
        }
      ],
      "name": "withdrawToken",
      "outputs": [],
      "stateMutability": "nonpayable",
      "type": "function"
    }
  ],
  "bytecode": "0x608060405234801561001057600080fd5b5060405161141538038061141583398101604081905261002f91610070565b600080546001600160a01b039384166001600160a01b03199182161790915560018054929093169181169190911790915560028054909116331790556100c1565b60008060408385031215610082578182fd5b825161008d816100a9565b602084015190925061009e816100a9565b809150509250929050565b6001600160a01b03811681146100be57600080fd5b50565b611345806100d06000396000f3fe608060405234801561001057600080fd5b50600436106100625760003560e01c806310d1e85c146100675780636d13582c1461007c5780637362377b1461009a57806376e9d066146100a257806389476069146100b5578063c45a0155146100c8575b600080fd5b61007a610075366004610ceb565b6100d0565b005b610084610553565b6040516100919190610f20565b60405180910390f35b61007a610562565b61007a6100b0366004610ca6565b6105d0565b61007a6100c3366004610c6e565b610702565b610084610832565b6040805160028082526060808301845292602083019080368337019050509050600085156100fe5785610100565b845b90506000336001600160a01b0316630dfe16816040518163ffffffff1660e01b815260040160206040518083038186803b15801561013d57600080fd5b505afa158015610151573d6000803e3d6000fd5b505050506040513d601f19601f820116820180604052508101906101759190610c8a565b90506000336001600160a01b031663d21220a76040518163ffffffff1660e01b815260040160206040518083038186803b1580156101b257600080fd5b505afa1580156101c6573d6000803e3d6000fd5b505050506040513d601f19601f820116820180604052508101906101ea9190610c8a565b600054909150610204906001600160a01b03168383610841565b6001600160a01b0316336001600160a01b03161461023d5760405162461bcd60e51b815260040161023490610f67565b60405180910390fd5b871580610248575086155b61025157600080fd5b871561025d578161025f565b805b8460008151811061026c57fe5b6001600160a01b039092166020928302919091019091015287156102905780610292565b815b8460018151811061029f57fe5b6001600160a01b0390921660209283029190910190910152600088156102c557826102c7565b815b60015460405163095ea7b360e01b81529192506001600160a01b038084169263095ea7b3926102fc9216908890600401610f34565b602060405180830381600087803b15801561031657600080fd5b505af115801561032a573d6000803e3d6000fd5b505050506040513d601f19601f8201168201806040525081019061034e9190610e17565b5060008054610367906001600160a01b031686886108b1565b60008151811061037357fe5b60209081029190910101516001546040516338ed173960e01b81529192506000916001600160a01b03909116906338ed1739906103bf90899086908c903390620d2f009060040161122b565b600060405180830381600087803b1580156103d957600080fd5b505af11580156103ed573d6000803e3d6000fd5b505050506040513d6000823e601f3d908101601f191682016040526104159190810190610d7f565b60018151811061042157fe5b6020026020010151905060008b60001461043b578461043d565b855b60405163a9059cbb60e01b81529091506001600160a01b0382169063a9059cbb9061046e9033908790600401610f34565b602060405180830381600087803b15801561048857600080fd5b505af115801561049c573d6000803e3d6000fd5b505050506040513d601f19601f820116820180604052508101906104c09190610e17565b50806001600160a01b031663a9059cbb8e8585036040518363ffffffff1660e01b81526004016104f1929190610f34565b602060405180830381600087803b15801561050b57600080fd5b505af115801561051f573d6000803e3d6000fd5b505050506040513d601f19601f820116820180604052508101906105439190610e17565b5050505050505050505050505050565b6001546001600160a01b031681565b6002546001600160a01b0316331461058c5760405162461bcd60e51b815260040161023490610f67565b60025460405130918231916001600160a01b03909116906108fc8315029083906000818181858888f193505050501580156105cb573d6000803e3d6000fd5b505050565b6000805460405163e6a4390560e01b81526001600160a01b039091169063e6a43905906106039088908890600401610f4d565b60206040518083038186803b15801561061b57600080fd5b505afa15801561062f573d6000803e3d6000fd5b505050506040513d601f19601f820116820180604052508101906106539190610c8a565b90506001600160a01b03811661067b5760405162461bcd60e51b81526004016102349061114c565b60408051808201825260098152686e6f7420656d70747960b81b6020820152905163022c0d9f60e01b81526001600160a01b0383169163022c0d9f916106c9918791879130916004016111ba565b600060405180830381600087803b1580156106e357600080fd5b505af11580156106f7573d6000803e3d6000fd5b505050505050505050565b6002546001600160a01b0316331461072c5760405162461bcd60e51b815260040161023490610f67565b6040516370a0823160e01b81526000906001600160a01b038316906370a082319061075b903090600401610f20565b60206040518083038186803b15801561077357600080fd5b505afa158015610787573d6000803e3d6000fd5b505050506040513d601f19601f820116820180604052508101906107ab9190610e8b565b60025460405163a9059cbb60e01b81529192506001600160a01b038085169263a9059cbb926107e09216908590600401610f34565b602060405180830381600087803b1580156107fa57600080fd5b505af115801561080e573d6000803e3d6000fd5b505050506040513d601f19601f820116820180604052508101906105cb9190610e17565b6000546001600160a01b031681565b600080600061085085856109c9565b91509150858282604051602001610868929190610ea3565b6040516020818303038152906040528051906020012060405160200161088f929190610eca565b60408051601f1981840301815291905280516020909101209695505050505050565b60606002825110156108d55760405162461bcd60e51b81526004016102349061108c565b815167ffffffffffffffff811180156108ed57600080fd5b50604051908082528060200260200182016040528015610917578160200160208202803683370190505b509050828160018351038151811061092b57fe5b60209081029190910101528151600019015b80156109c15760008061097a8786600186038151811061095957fe5b602002602001015187868151811061096d57fe5b6020026020010151610a53565b9150915061099c84848151811061098d57fe5b60200260200101518383610b2c565b8460018503815181106109ab57fe5b602090810291909101015250506000190161093d565b509392505050565b600080826001600160a01b0316846001600160a01b031614156109fe5760405162461bcd60e51b815260040161023490611010565b826001600160a01b0316846001600160a01b031610610a1e578284610a21565b83835b90925090506001600160a01b038216610a4c5760405162461bcd60e51b815260040161023490611183565b9250929050565b6000806000610a6285856109c9565b509050600080610a73888888610841565b6001600160a01b0316630902f1ac6040518163ffffffff1660e01b815260040160606040518083038186803b158015610aab57600080fd5b505afa158015610abf573d6000803e3d6000fd5b505050506040513d601f19601f82011682018060405250810190610ae39190610e37565b506001600160701b031691506001600160701b03169150826001600160a01b0316876001600160a01b031614610b1a578082610b1d565b81815b90999098509650505050505050565b6000808411610b4d5760405162461bcd60e51b815260040161023490610fc4565b600083118015610b5d5750600082115b610b795760405162461bcd60e51b8152600401610234906110c3565b6000610b9d6103e8610b91868863ffffffff610bde16565b9063ffffffff610bde16565b90506000610bb76103e5610b91868963ffffffff610c2116565b9050610bd46001828481610bc757fe5b049063ffffffff610c4916565b9695505050505050565b600082610bed57506000610c1b565b82820282848281610bfa57fe5b0414610c185760405162461bcd60e51b81526004016102349061110b565b90505b92915050565b600082821115610c435760405162461bcd60e51b815260040161023490611055565b50900390565b600082820183811015610c185760405162461bcd60e51b815260040161023490610f8d565b600060208284031215610c7f578081fd5b8135610c18816112e2565b600060208284031215610c9b578081fd5b8151610c18816112e2565b60008060008060808587031215610cbb578283fd5b8435610cc6816112e2565b93506020850135610cd6816112e2565b93969395505050506040820135916060013590565b600080600080600060808688031215610d02578081fd5b8535610d0d816112e2565b94506020860135935060408601359250606086013567ffffffffffffffff80821115610d37578283fd5b81880189601f820112610d48578384fd5b8035925081831115610d58578384fd5b896020848301011115610d69578384fd5b6020810194505050809150509295509295909350565b60006020808385031215610d91578182fd5b825167ffffffffffffffff811115610da7578283fd5b80840185601f820112610db8578384fd5b80519150610dcd610dc8836112c2565b61129b565b8281528381019082850185850284018601891015610de9578687fd5b8693505b84841015610e0b578051835260019390930192918501918501610ded565b50979650505050505050565b600060208284031215610e28578081fd5b81518015158114610c18578182fd5b600080600060608486031215610e4b578283fd5b8351610e56816112fa565b6020850151909350610e67816112fa565b604085015190925063ffffffff81168114610e80578182fd5b809150509250925092565b600060208284031215610e9c578081fd5b5051919050565b6bffffffffffffffffffffffff19606093841b811682529190921b16601482015260280190565b6001600160f81b0319815260609290921b6bffffffffffffffffffffffff1916600183015260158201527f96e8ac4277198ff8b6f785478aa9a39f403cb768dd02cbee326c3e7da348845f603582015260550190565b6001600160a01b0391909116815260200190565b6001600160a01b03929092168252602082015260400190565b6001600160a01b0392831681529116602082015260400190565b6020808252600c908201526b155b985d5d1a1bdc9a5e995960a21b604082015260600190565b6020808252601b908201527f536166654d6174683a206164646974696f6e206f766572666c6f770000000000604082015260600190565b6020808252602c908201527f556e697377617056324c6962726172793a20494e53554646494349454e545f4f60408201526b155514155517d05353d5539560a21b606082015260800190565b60208082526025908201527f556e697377617056324c6962726172793a204944454e544943414c5f41444452604082015264455353455360d81b606082015260800190565b6020808252601e908201527f536166654d6174683a207375627472616374696f6e206f766572666c6f770000604082015260600190565b6020808252601e908201527f556e697377617056324c6962726172793a20494e56414c49445f504154480000604082015260600190565b60208082526028908201527f556e697377617056324c6962726172793a20494e53554646494349454e545f4c604082015267495155494449545960c01b606082015260800190565b60208082526021908201527f536166654d6174683a206d756c7469706c69636174696f6e206f766572666c6f6040820152607760f81b606082015260800190565b60208082526018908201527f5468697320706f6f6c20646f6573206e6f742065786973740000000000000000604082015260600190565b6020808252601e908201527f556e697377617056324c6962726172793a205a45524f5f414444524553530000604082015260600190565b60008582526020858184015260018060a01b0385166040840152608060608401528351806080850152825b818110156112015785810183015185820160a0015282016111e5565b81811115611212578360a083870101525b50601f01601f19169290920160a0019695505050505050565b600060a082018783526020878185015260a0604085015281875180845260c0860191508289019350845b8181101561127a5784516001600160a01b031683529383019391830191600101611255565b50506001600160a01b03969096166060850152505050608001529392505050565b60405181810167ffffffffffffffff811182821017156112ba57600080fd5b604052919050565b600067ffffffffffffffff8211156112d8578081fd5b5060209081020190565b6001600160a01b03811681146112f757600080fd5b50565b6001600160701b03811681146112f757600080fdfea2646970667358221220c971428fa5b8b1323ce6a25fc82a86b32b70c9e78c1c22b3e8fcb00c8093154864736f6c63430006060033",
  "linkReferences": {},
  "deployedLinkReferences": {}
}