{
  "_format": "hh-sol-artifact-1",
  "contractName": "AaveV2FlashLoan",
  "sourceName": "contracts/AaveV2FlashLoan.sol",
  "abi": [
    {
      "inputs": [
        {
          "internalType": "address",
          "name": "_kyberRouter",
          "type": "address"
        },
        {
          "internalType": "address",
          "name": "_sushiRouter",
          "type": "address"
        },
        {
          "internalType": "address",
          "name": "provider",
          "type": "address"
        }
      ],
      "stateMutability": "nonpayable",
      "type": "constructor"
    },
    {
      "anonymous": false,
      "inputs": [
        {
          "indexed": true,
          "internalType": "address",
          "name": "_from",
          "type": "address"
        },
        {
          "indexed": true,
          "internalType": "address",
          "name": "_assetAddress",
          "type": "address"
        },
        {
          "indexed": false,
          "internalType": "uint256",
          "name": "amount",
          "type": "uint256"
        }
      ],
      "name": "LogWithdraw",
      "type": "event"
    },
    {
      "anonymous": false,
      "inputs": [
        {
          "indexed": true,
          "internalType": "address",
          "name": "previousOwner",
          "type": "address"
        },
        {
          "indexed": true,
          "internalType": "address",
          "name": "newOwner",
          "type": "address"
        }
      ],
      "name": "OwnershipTransferred",
      "type": "event"
    },
    {
      "inputs": [],
      "name": "ADDRESSES_PROVIDER",
      "outputs": [
        {
          "internalType": "contract ILendingPoolAddressesProvider",
          "name": "",
          "type": "address"
        }
      ],
      "stateMutability": "view",
      "type": "function"
    },
    {
      "inputs": [],
      "name": "LENDING_POOL",
      "outputs": [
        {
          "internalType": "contract ILendingPool",
          "name": "",
          "type": "address"
        }
      ],
      "stateMutability": "view",
      "type": "function"
    },
    {
      "inputs": [
        {
          "internalType": "address[]",
          "name": "assets",
          "type": "address[]"
        },
        {
          "internalType": "uint256[]",
          "name": "amounts",
          "type": "uint256[]"
        },
        {
          "internalType": "uint256[]",
          "name": "premiums",
          "type": "uint256[]"
        },
        {
          "internalType": "address",
          "name": "initiator",
          "type": "address"
        },
        {
          "internalType": "bytes",
          "name": "params",
          "type": "bytes"
        }
      ],
      "name": "executeOperation",
      "outputs": [
        {
          "internalType": "bool",
          "name": "",
          "type": "bool"
        }
      ],
      "stateMutability": "nonpayable",
      "type": "function"
    },
    {
      "inputs": [],
      "name": "kyberRouter",
      "outputs": [
        {
          "internalType": "contract KyberNetworkProxy",
          "name": "",
          "type": "address"
        }
      ],
      "stateMutability": "view",
      "type": "function"
    },
    {
      "inputs": [
        {
          "internalType": "address",
          "name": "token0",
          "type": "address"
        },
        {
          "internalType": "address",
          "name": "token1",
          "type": "address"
        },
        {
          "internalType": "uint256",
          "name": "_amount0",
          "type": "uint256"
        },
        {
          "internalType": "uint256",
          "name": "_amount1",
          "type": "uint256"
        },
        {
          "internalType": "string",
          "name": "exchangeA",
          "type": "string"
        },
        {
          "internalType": "string",
          "name": "exchangeB",
          "type": "string"
        }
      ],
      "name": "myFlashLoanCall",
      "outputs": [],
      "stateMutability": "nonpayable",
      "type": "function"
    },
    {
      "inputs": [],
      "name": "owner",
      "outputs": [
        {
          "internalType": "address",
          "name": "",
          "type": "address"
        }
      ],
      "stateMutability": "view",
      "type": "function"
    },
    {
      "inputs": [],
      "name": "renounceOwnership",
      "outputs": [],
      "stateMutability": "nonpayable",
      "type": "function"
    },
    {
      "inputs": [],
      "name": "sushiRouter",
      "outputs": [
        {
          "internalType": "contract IUniswapV2Router02",
          "name": "",
          "type": "address"
        }
      ],
      "stateMutability": "view",
      "type": "function"
    },
    {
      "inputs": [
        {
          "internalType": "address",
          "name": "newOwner",
          "type": "address"
        }
      ],
      "name": "transferOwnership",
      "outputs": [],
      "stateMutability": "nonpayable",
      "type": "function"
    },
    {
      "inputs": [
        {
          "internalType": "address",
          "name": "_assetAddress",
          "type": "address"
        }
      ],
      "name": "withdraw",
      "outputs": [],
      "stateMutability": "nonpayable",
      "type": "function"
    },
    {
      "stateMutability": "payable",
      "type": "receive"
    }
  ],
  "bytecode": "0x60c060405234801561001057600080fd5b5060405162001cfb38038062001cfb8339818101604052606081101561003557600080fd5b5080516020808301516040938401516001600160601b0319606082901b166080528451630261bf8b60e01b8152945193949193909283926001600160a01b03841692630261bf8b92600480840193919291829003018186803b15801561009a57600080fd5b505afa1580156100ae573d6000803e3d6000fd5b505050506040513d60208110156100c457600080fd5b505160601b6001600160601b03191660a0525060006100e161015d565b600080546001600160a01b0319166001600160a01b0383169081178255604051929350917f8be0079c531659141344cd1fd0a4f28419497f9722a3daafe3b4186f6b6457e0908290a35050600280546001600160a01b039384166001600160a01b03199182161790915560018054929093169116179055610161565b3390565b60805160601c60a05160601c611b66620001956000398061092c528061153252806115eb52508061048c5250611b666000f3fe6080604052600436106100955760003560e01c80638da5cb5b116100595780638da5cb5b1461028c578063920f5c84146102a1578063b4dcfc771461042d578063f2fde38b14610442578063f63ca6e4146104755761009c565b80630542975c146100a157806351cff8d9146100d25780636d13582c14610107578063715018a61461011c5780638760851c146101315761009c565b3661009c57005b600080fd5b3480156100ad57600080fd5b506100b661048a565b604080516001600160a01b039092168252519081900360200190f35b3480156100de57600080fd5b50610105600480360360208110156100f557600080fd5b50356001600160a01b03166104ae565b005b34801561011357600080fd5b506100b661063d565b34801561012857600080fd5b5061010561064c565b34801561013d57600080fd5b50610105600480360360c081101561015457600080fd5b6001600160a01b03823581169260208101359091169160408201359160608101359181019060a081016080820135600160201b81111561019357600080fd5b8201836020820111156101a557600080fd5b803590602001918460018302840111600160201b831117156101c657600080fd5b91908080601f0160208091040260200160405190810160405280939291908181526020018383808284376000920191909152509295949360208101935035915050600160201b81111561021857600080fd5b82018360208201111561022a57600080fd5b803590602001918460018302840111600160201b8311171561024b57600080fd5b91908080601f01602080910402602001604051908101604052809392919081815260200183838082843760009201919091525092955061070a945050505050565b34801561029857600080fd5b506100b6610b2f565b3480156102ad57600080fd5b50610419600480360360a08110156102c457600080fd5b810190602081018135600160201b8111156102de57600080fd5b8201836020820111156102f057600080fd5b803590602001918460208302840111600160201b8311171561031157600080fd5b919390929091602081019035600160201b81111561032e57600080fd5b82018360208201111561034057600080fd5b803590602001918460208302840111600160201b8311171561036157600080fd5b919390929091602081019035600160201b81111561037e57600080fd5b82018360208201111561039057600080fd5b803590602001918460208302840111600160201b831117156103b157600080fd5b919390926001600160a01b0383351692604081019060200135600160201b8111156103db57600080fd5b8201836020820111156103ed57600080fd5b803590602001918460018302840111600160201b8311171561040e57600080fd5b509092509050610b3e565b604080519115158252519081900360200190f35b34801561043957600080fd5b506100b66115e9565b34801561044e57600080fd5b506101056004803603602081101561046557600080fd5b50356001600160a01b031661160d565b34801561048157600080fd5b506100b6611721565b7f000000000000000000000000000000000000000000000000000000000000000081565b6104b6611730565b6001600160a01b03166104c7610b2f565b6001600160a01b031614610522576040805162461bcd60e51b815260206004820181905260248201527f4f776e61626c653a2063616c6c6572206973206e6f7420746865206f776e6572604482015290519081900360640190fd5b60006001600160a01b03821661056b575060405130803191339083156108fc029084906000818181858888f19350505050158015610564573d6000803e3d6000fd5b50506105f9565b604080516370a0823160e01b815230600482015290516001600160a01b038416916370a08231916024808301926020929190829003018186803b1580156105b157600080fd5b505afa1580156105c5573d6000803e3d6000fd5b505050506040513d60208110156105db57600080fd5b505190506105f96001600160a01b038316338363ffffffff61173416565b6040805182815290516001600160a01b0384169133917f9207361cc2a04b9c7a06691df1eb87c6a63957ae88bf01d0d18c81e3d12720999181900360200190a35050565b6001546001600160a01b031681565b610654611730565b6001600160a01b0316610665610b2f565b6001600160a01b0316146106c0576040805162461bcd60e51b815260206004820181905260248201527f4f776e61626c653a2063616c6c6572206973206e6f7420746865206f776e6572604482015290519081900360640190fd5b600080546040516001600160a01b03909116907f8be0079c531659141344cd1fd0a4f28419497f9722a3daafe3b4186f6b6457e0908390a3600080546001600160a01b0319169055565b60408051600280825260608083018452309390929190602083019080368337019050509050878160008151811061073d57fe5b60200260200101906001600160a01b031690816001600160a01b031681525050868160018151811061076b57fe5b6001600160a01b039290921660209283029190910190910152604080516002808252606082810190935281602001602082028036833701905050905086816000815181106107b557fe5b60200260200101818152505085816001815181106107cf57fe5b6020908102919091010152604080516002808252606082810190935281602001602082028036833701905050905060008160008151811061080c57fe5b60200260200101818152505060008160018151811061082757fe5b602002602001018181525050600030905060608787604051602001808060200180602001838103835285818151815260200191508051906020019080838360005b83811015610880578181015183820152602001610868565b50505050905090810190601f1680156108ad5780820380516001836020036101000a031916815260200191505b50838103825284518152845160209182019186019080838360005b838110156108e05781810151838201526020016108c8565b50505050905090810190601f16801561090d5780820380516001836020036101000a031916815260200191505b50945050505050604051602081830303815290604052905060008090507f00000000000000000000000000000000000000000000000000000000000000006001600160a01b031663ab9c4b5d888888888888886040518863ffffffff1660e01b815260040180886001600160a01b03166001600160a01b03168152602001806020018060200180602001876001600160a01b03166001600160a01b03168152602001806020018661ffff1661ffff16815260200185810385528b818151815260200191508051906020019060200280838360005b838110156109f95781810151838201526020016109e1565b5050505090500185810384528a818151815260200191508051906020019060200280838360005b83811015610a38578181015183820152602001610a20565b50505050905001858103835289818151815260200191508051906020019060200280838360005b83811015610a77578181015183820152602001610a5f565b50505050905001858103825287818151815260200191508051906020019080838360005b83811015610ab3578181015183820152602001610a9b565b50505050905090810190601f168015610ae05780820380516001836020036101000a031916815260200191505b509b505050505050505050505050600060405180830381600087803b158015610b0857600080fd5b505af1158015610b1c573d6000803e3d6000fd5b5050505050505050505050505050505050565b6000546001600160a01b031690565b600060608084846040811015610b5357600080fd5b810190602081018135600160201b811115610b6d57600080fd5b820183602082011115610b7f57600080fd5b803590602001918460018302840111600160201b83111715610ba057600080fd5b91908080601f0160208091040260200160405190810160405280939291908181526020018383808284376000920191909152509295949360208101935035915050600160201b811115610bf257600080fd5b820183602082011115610c0457600080fd5b803590602001918460018302840111600160201b83111715610c2557600080fd5b91908080601f016020809104026020016040519081016040528093929190818152602001838380828437600092019190915250506040805164737573686960d81b60208083019190915282518083036005018152602583019093528251928101929092208951999b5094995093978a975060459094019550859450860192915081905083835b60208310610cca5780518252601f199092019160209182019101610cab565b6001836020036101000a038019825116818451168082178552505050505050905001915050604051602081830303815290604052805190602001201415610eb6576001546001600160a01b03166338ed17398b8b600081610d2757fe5b905060200201358c8c6001818110610d3b57fe5b905060200201358f8f30620d2f006040518763ffffffff1660e01b81526004018087815260200186815260200180602001846001600160a01b03166001600160a01b031681526020018381526020018281038252868682818152602001925060200280828437600081840152601f19601f820116905080830192505050975050505050505050600060405180830381600087803b158015610ddb57600080fd5b505af1158015610def573d6000803e3d6000fd5b505050506040513d6000823e601f3d908101601f191682016040526020811015610e1857600080fd5b8101908080516040519392919084600160201b821115610e3757600080fd5b908301906020820185811115610e4c57600080fd5b82518660208202830111600160201b82111715610e6857600080fd5b82525081516020918201928201910280838360005b83811015610e95578181015183820152602001610e7d565b50505050905001604052505050600181518110610eae57fe5b506110519050565b60405160200180806435bcb132b960d91b815250600501905060405160208183030381529060405280519060200120826040516020018082805190602001908083835b60208310610f185780518252601f199092019160209182019101610ef9565b6001836020036101000a038019825116818451168082178552505050505050905001915050604051602081830303815290604052805190602001201415611051576002546001600160a01b0316637409e2eb8d8d600081610f7557fe5b905060200201356001600160a01b03168c8c6000818110610f9257fe5b905060200201358f8f6001818110610fa657fe5b905060200201356001600160a01b03168e8e6001818110610fc357fe5b604080516001600160e01b031960e08a901b1681526001600160a01b03978816600482015260248101969096529390951660448501525060209384020135606483015251608480830193928290030181600087803b15801561102457600080fd5b505af1158015611038573d6000803e3d6000fd5b505050506040513d602081101561104e57600080fd5b50505b604051602001808064737573686960d81b815250600501905060405160208183030381529060405280519060200120816040516020018082805190602001908083835b602083106110b35780518252601f199092019160209182019101611094565b6001836020036101000a0380198251168184511680821785525050505050509050019150506040516020818303038152906040528051906020012014156112af57600180546001600160a01b0316906338ed1739908c908c9081811061111557fe5b905060200201358c8c600081811061112957fe5b905060200201358f8f30620d2f006040518763ffffffff1660e01b81526004018087815260200186815260200180602001846001600160a01b03166001600160a01b031681526020018381526020018281038252868682818152602001925060200280828437600081840152601f19601f820116905080830192505050975050505050505050600060405180830381600087803b1580156111c957600080fd5b505af11580156111dd573d6000803e3d6000fd5b505050506040513d6000823e601f3d908101601f19168201604052602081101561120657600080fd5b8101908080516040519392919084600160201b82111561122557600080fd5b90830190602082018581111561123a57600080fd5b82518660208202830111600160201b8211171561125657600080fd5b82525081516020918201928201910280838360005b8381101561128357818101518382015260200161126b565b5050505090500160405250505060008151811061129c57fe5b6020026020010151600381905550611459565b60405160200180806435bcb132b960d91b815250600501905060405160208183030381529060405280519060200120816040516020018082805190602001908083835b602083106113115780518252601f1990920191602091820191016112f2565b6001836020036101000a038019825116818451168082178552505050505050905001915050604051602081830303815290604052805190602001201415611453576002546001600160a01b0316637409e2eb8d8d600181811061137057fe5b905060200201356001600160a01b03168c8c600181811061138d57fe5b905060200201358f8f60008181106113a157fe5b905060200201356001600160a01b03168e8e60008181106113be57fe5b604080516001600160e01b031960e08a901b1681526001600160a01b03978816600482015260248101969096529390951660448501525060209384020135606483015251608480830193928290030181600087803b15801561141f57600080fd5b505af1158015611433573d6000803e3d6000fd5b505050506040513d602081101561144957600080fd5b5051600355611459565b60006003555b6114928888600081811061146957fe5b905060200201358b8b600081811061147d57fe5b9050602002013561178b90919063ffffffff16565b600354116114d5576040805162461bcd60e51b815260206004820152600b60248201526a2330b4b632b21030b9311760a91b604482015290519081900360640190fd5b60005b8b8110156115d65760006115048a8a848181106114f157fe5b905060200201358d8d8581811061147d57fe5b90508d8d8381811061151257fe5b905060200201356001600160a01b03166001600160a01b031663095ea7b37f0000000000000000000000000000000000000000000000000000000000000000836040518363ffffffff1660e01b815260040180836001600160a01b03166001600160a01b0316815260200182815260200192505050602060405180830381600087803b1580156115a157600080fd5b505af11580156115b5573d6000803e3d6000fd5b505050506040513d60208110156115cb57600080fd5b5050506001016114d8565b5060019c9b505050505050505050505050565b7f000000000000000000000000000000000000000000000000000000000000000081565b611615611730565b6001600160a01b0316611626610b2f565b6001600160a01b031614611681576040805162461bcd60e51b815260206004820181905260248201527f4f776e61626c653a2063616c6c6572206973206e6f7420746865206f776e6572604482015290519081900360640190fd5b6001600160a01b0381166116c65760405162461bcd60e51b8152600401808060200182810382526026815260200180611abb6026913960400191505060405180910390fd5b600080546040516001600160a01b03808516939216917f8be0079c531659141344cd1fd0a4f28419497f9722a3daafe3b4186f6b6457e091a3600080546001600160a01b0319166001600160a01b0392909216919091179055565b6002546001600160a01b031681565b3390565b604080516001600160a01b038416602482015260448082018490528251808303909101815260649091019091526020810180516001600160e01b031663a9059cbb60e01b1790526117869084906117ec565b505050565b6000828201838110156117e5576040805162461bcd60e51b815260206004820152601b60248201527f536166654d6174683a206164646974696f6e206f766572666c6f770000000000604482015290519081900360640190fd5b9392505050565b6060611841826040518060400160405280602081526020017f5361666545524332303a206c6f772d6c6576656c2063616c6c206661696c6564815250856001600160a01b031661189d9092919063ffffffff16565b8051909150156117865780806020019051602081101561186057600080fd5b50516117865760405162461bcd60e51b815260040180806020018281038252602a815260200180611b07602a913960400191505060405180910390fd5b60606118ac84846000856118b4565b949350505050565b6060824710156118f55760405162461bcd60e51b8152600401808060200182810382526026815260200180611ae16026913960400191505060405180910390fd5b6118fe85611a10565b61194f576040805162461bcd60e51b815260206004820152601d60248201527f416464726573733a2063616c6c20746f206e6f6e2d636f6e7472616374000000604482015290519081900360640190fd5b60006060866001600160a01b031685876040518082805190602001908083835b6020831061198e5780518252601f19909201916020918201910161196f565b6001836020036101000a03801982511681845116808217855250505050505090500191505060006040518083038185875af1925050503d80600081146119f0576040519150601f19603f3d011682016040523d82523d6000602084013e6119f5565b606091505b5091509150611a05828286611a16565b979650505050505050565b3b151590565b60608315611a255750816117e5565b825115611a355782518084602001fd5b8160405162461bcd60e51b81526004018080602001828103825283818151815260200191508051906020019080838360005b83811015611a7f578181015183820152602001611a67565b50505050905090810190601f168015611aac5780820380516001836020036101000a031916815260200191505b509250505060405180910390fdfe4f776e61626c653a206e6577206f776e657220697320746865207a65726f2061646472657373416464726573733a20696e73756666696369656e742062616c616e636520666f722063616c6c5361666545524332303a204552433230206f7065726174696f6e20646964206e6f742073756363656564a2646970667358221220ad01be06060c0bc83b5394ef39a0ddec158eb8a189821c7d31176f53b5e5da6064736f6c63430006060033",
  "linkReferences": {},
  "deployedLinkReferences": {}
}