{
  "contractName": "UniswapTradeBot",
  "abi": [
    {
      "inputs": [
        {
          "internalType": "address",
          "name": "_factory",
          "type": "address"
        },
        {
          "internalType": "address",
          "name": "_sushiRouter",
          "type": "address"
        }
      ],
      "stateMutability": "nonpayable",
      "type": "constructor"
    },
    {
      "inputs": [],
      "name": "factory",
      "outputs": [
        {
          "internalType": "address",
          "name": "",
          "type": "address"
        }
      ],
      "stateMutability": "view",
      "type": "function"
    },
    {
      "inputs": [],
      "name": "sushiRouter",
      "outputs": [
        {
          "internalType": "contract IUniswapV2Router02",
          "name": "",
          "type": "address"
        }
      ],
      "stateMutability": "view",
      "type": "function"
    },
    {
      "inputs": [
        {
          "internalType": "address",
          "name": "token0",
          "type": "address"
        },
        {
          "internalType": "address",
          "name": "token1",
          "type": "address"
        },
        {
          "internalType": "uint256",
          "name": "amount0",
          "type": "uint256"
        },
        {
          "internalType": "uint256",
          "name": "amount1",
          "type": "uint256"
        }
      ],
      "name": "startArbitrage",
      "outputs": [],
      "stateMutability": "nonpayable",
      "type": "function"
    },
    {
      "inputs": [
        {
          "internalType": "address",
          "name": "_sender",
          "type": "address"
        },
        {
          "internalType": "uint256",
          "name": "_amount0",
          "type": "uint256"
        },
        {
          "internalType": "uint256",
          "name": "_amount1",
          "type": "uint256"
        },
        {
          "internalType": "bytes",
          "name": "_data",
          "type": "bytes"
        }
      ],
      "name": "uniswapV2Call",
      "outputs": [],
      "stateMutability": "nonpayable",
      "type": "function"
    },
    {
      "inputs": [
        {
          "internalType": "address",
          "name": "_tokenContract",
          "type": "address"
        },
        {
          "internalType": "uint256",
          "name": "_amount",
          "type": "uint256"
        }
      ],
      "name": "withdrawToken",
      "outputs": [],
      "stateMutability": "nonpayable",
      "type": "function"
    }
  ],
  "bytecode": "0x60806040523480156200001157600080fd5b5060405162001fef38038062001fef833981810160405281019062000037919062000118565b816000806101000a81548173ffffffffffffffffffffffffffffffffffffffff021916908373ffffffffffffffffffffffffffffffffffffffff16021790555080600160006101000a81548173ffffffffffffffffffffffffffffffffffffffff021916908373ffffffffffffffffffffffffffffffffffffffff16021790555033600260006101000a81548173ffffffffffffffffffffffffffffffffffffffff021916908373ffffffffffffffffffffffffffffffffffffffff1602179055505050620001a7565b60008151905062000112816200018d565b92915050565b600080604083850312156200012c57600080fd5b60006200013c8582860162000101565b92505060206200014f8582860162000101565b9150509250929050565b600062000166826200016d565b9050919050565b600073ffffffffffffffffffffffffffffffffffffffff82169050919050565b620001988162000159565b8114620001a457600080fd5b50565b611e3880620001b76000396000f3fe608060405234801561001057600080fd5b50600436106100575760003560e01c806310d1e85c1461005c5780636d13582c1461007857806376e9d066146100965780639e281a98146100b2578063c45a0155146100ce575b600080fd5b61007660048036038101906100719190611276565b6100ec565b005b6100806106c8565b60405161008d9190611973565b60405180910390f35b6100b060048036038101906100ab91906111d7565b6106ee565b005b6100cc60048036038101906100c7919061123a565b6108bb565b005b6100d6610a05565b6040516100e391906118dd565b60405180910390f35b6060600267ffffffffffffffff8111801561010657600080fd5b506040519080825280602002602001820160405280156101355781602001602082028036833780820191505090505b50905060008086146101475785610149565b845b905060003373ffffffffffffffffffffffffffffffffffffffff16630dfe16816040518163ffffffff1660e01b815260040160206040518083038186803b15801561019357600080fd5b505afa1580156101a7573d6000803e3d6000fd5b505050506040513d601f19601f820116820180604052508101906101cb91906111ae565b905060003373ffffffffffffffffffffffffffffffffffffffff1663d21220a76040518163ffffffff1660e01b815260040160206040518083038186803b15801561021557600080fd5b505afa158015610229573d6000803e3d6000fd5b505050506040513d601f19601f8201168201806040525081019061024d91906111ae565b905061027a60008054906101000a900473ffffffffffffffffffffffffffffffffffffffff168383610a29565b73ffffffffffffffffffffffffffffffffffffffff163373ffffffffffffffffffffffffffffffffffffffff16146102e7576040517f08c379a00000000000000000000000000000000000000000000000000000000081526004016102de9061198e565b60405180910390fd5b60008814806102f65750600087145b6102ff57600080fd5b6000881461030d578161030f565b805b8460008151811061031c57fe5b602002602001019073ffffffffffffffffffffffffffffffffffffffff16908173ffffffffffffffffffffffffffffffffffffffff1681525050600088146103645780610366565b815b8460018151811061037357fe5b602002602001019073ffffffffffffffffffffffffffffffffffffffff16908173ffffffffffffffffffffffffffffffffffffffff168152505060008089146103bc57826103be565b815b90508073ffffffffffffffffffffffffffffffffffffffff1663095ea7b3600160009054906101000a900473ffffffffffffffffffffffffffffffffffffffff16866040518363ffffffff1660e01b815260040161041d92919061194a565b602060405180830381600087803b15801561043757600080fd5b505af115801561044b573d6000803e3d6000fd5b505050506040513d601f19601f8201168201806040525081019061046f9190611337565b50600061049d60008054906101000a900473ffffffffffffffffffffffffffffffffffffffff168688610a9b565b6000815181106104a957fe5b602002602001015190506000600160009054906101000a900473ffffffffffffffffffffffffffffffffffffffff1673ffffffffffffffffffffffffffffffffffffffff166338ed173987848a33620d2f006040518663ffffffff1660e01b815260040161051b959493929190611b1a565b600060405180830381600087803b15801561053557600080fd5b505af1158015610549573d6000803e3d6000fd5b505050506040513d6000823e3d601f19601f8201168201806040525081019061057291906112f6565b60018151811061057e57fe5b602002602001015190506000808c146105975784610599565b855b90508073ffffffffffffffffffffffffffffffffffffffff1663a9059cbb33856040518363ffffffff1660e01b81526004016105d69291906118f8565b602060405180830381600087803b1580156105f057600080fd5b505af1158015610604573d6000803e3d6000fd5b505050506040513d601f19601f820116820180604052508101906106289190611337565b508073ffffffffffffffffffffffffffffffffffffffff1663a9059cbb8e8585036040518363ffffffff1660e01b815260040161066692919061194a565b602060405180830381600087803b15801561068057600080fd5b505af1158015610694573d6000803e3d6000fd5b505050506040513d601f19601f820116820180604052508101906106b89190611337565b5050505050505050505050505050565b600160009054906101000a900473ffffffffffffffffffffffffffffffffffffffff1681565b60008060009054906101000a900473ffffffffffffffffffffffffffffffffffffffff1673ffffffffffffffffffffffffffffffffffffffff1663e6a4390586866040518363ffffffff1660e01b815260040161074c929190611921565b60206040518083038186803b15801561076457600080fd5b505afa158015610778573d6000803e3d6000fd5b505050506040513d601f19601f8201168201806040525081019061079c91906111ae565b9050600073ffffffffffffffffffffffffffffffffffffffff168173ffffffffffffffffffffffffffffffffffffffff16141561080e576040517f08c379a000000000000000000000000000000000000000000000000000000000815260040161080590611a8e565b60405180910390fd5b8073ffffffffffffffffffffffffffffffffffffffff1663022c0d9f8484306040518060400160405280600981526020017f6e6f7420656d70747900000000000000000000000000000000000000000000008152506040518563ffffffff1660e01b81526004016108829493929190611ace565b600060405180830381600087803b15801561089c57600080fd5b505af11580156108b0573d6000803e3d6000fd5b505050505050505050565b600260009054906101000a900473ffffffffffffffffffffffffffffffffffffffff1673ffffffffffffffffffffffffffffffffffffffff163373ffffffffffffffffffffffffffffffffffffffff161461094b576040517f08c379a00000000000000000000000000000000000000000000000000000000081526004016109429061198e565b60405180910390fd5b60008290508073ffffffffffffffffffffffffffffffffffffffff1663a9059cbb600260009054906101000a900473ffffffffffffffffffffffffffffffffffffffff16846040518363ffffffff1660e01b81526004016109ad9291906118f8565b602060405180830381600087803b1580156109c757600080fd5b505af11580156109db573d6000803e3d6000fd5b505050506040513d601f19601f820116820180604052508101906109ff9190611337565b50505050565b60008054906101000a900473ffffffffffffffffffffffffffffffffffffffff1681565b6000806000610a388585610be8565b91509150858282604051602001610a5092919061186f565b60405160208183030381529060405280519060200120604051602001610a7792919061189b565b6040516020818303038152906040528051906020012060001c925050509392505050565b6060600282511015610ae2576040517f08c379a0000000000000000000000000000000000000000000000000000000008152600401610ad990611a2e565b60405180910390fd5b815167ffffffffffffffff81118015610afa57600080fd5b50604051908082528060200260200182016040528015610b295781602001602082028036833780820191505090505b5090508281600183510381518110610b3d57fe5b6020026020010181815250506000600183510390505b6000811115610be057600080610b9387866001860381518110610b7257fe5b6020026020010151878681518110610b8657fe5b6020026020010151610d16565b91509150610bb5848481518110610ba657fe5b60200260200101518383610e28565b846001850381518110610bc457fe5b6020026020010181815250505050808060019003915050610b53565b509392505050565b6000808273ffffffffffffffffffffffffffffffffffffffff168473ffffffffffffffffffffffffffffffffffffffff161415610c5a576040517f08c379a0000000000000000000000000000000000000000000000000000000008152600401610c51906119ee565b60405180910390fd5b8273ffffffffffffffffffffffffffffffffffffffff168473ffffffffffffffffffffffffffffffffffffffff1610610c94578284610c97565b83835b8092508193505050600073ffffffffffffffffffffffffffffffffffffffff168273ffffffffffffffffffffffffffffffffffffffff161415610d0f576040517f08c379a0000000000000000000000000000000000000000000000000000000008152600401610d0690611aae565b60405180910390fd5b9250929050565b6000806000610d258585610be8565b509050600080610d36888888610a29565b73ffffffffffffffffffffffffffffffffffffffff16630902f1ac6040518163ffffffff1660e01b815260040160606040518083038186803b158015610d7b57600080fd5b505afa158015610d8f573d6000803e3d6000fd5b505050506040513d601f19601f82011682018060405250810190610db39190611360565b506dffffffffffffffffffffffffffff1691506dffffffffffffffffffffffffffff1691508273ffffffffffffffffffffffffffffffffffffffff168773ffffffffffffffffffffffffffffffffffffffff1614610e12578082610e15565b81815b8095508196505050505050935093915050565b6000808411610e6c576040517f08c379a0000000000000000000000000000000000000000000000000000000008152600401610e63906119ce565b60405180910390fd5b600083118015610e7c5750600082115b610ebb576040517f08c379a0000000000000000000000000000000000000000000000000000000008152600401610eb290611a4e565b60405180910390fd5b6000610ee46103e8610ed68787610f3990919063ffffffff16565b610f3990919063ffffffff16565b90506000610f0f6103e5610f018887610fa990919063ffffffff16565b610f3990919063ffffffff16565b9050610f2e6001828481610f1f57fe5b04610ff990919063ffffffff16565b925050509392505050565b600080831415610f4c5760009050610fa3565b6000828402905082848281610f5d57fe5b0414610f9e576040517f08c379a0000000000000000000000000000000000000000000000000000000008152600401610f9590611a6e565b60405180910390fd5b809150505b92915050565b600082821115610fee576040517f08c379a0000000000000000000000000000000000000000000000000000000008152600401610fe590611a0e565b60405180910390fd5b818303905092915050565b600080828401905083811015611044576040517f08c379a000000000000000000000000000000000000000000000000000000000815260040161103b906119ae565b60405180910390fd5b8091505092915050565b60008135905061105d81611d8f565b92915050565b60008151905061107281611d8f565b92915050565b600082601f83011261108957600080fd5b815161109c61109782611ba1565b611b74565b915081818352602084019350602081019050838560208402820111156110c157600080fd5b60005b838110156110f157816110d78882611184565b8452602084019350602083019250506001810190506110c4565b5050505092915050565b60008151905061110a81611da6565b92915050565b60008083601f84011261112257600080fd5b8235905067ffffffffffffffff81111561113b57600080fd5b60208301915083600182028301111561115357600080fd5b9250929050565b60008151905061116981611dbd565b92915050565b60008135905061117e81611dd4565b92915050565b60008151905061119381611dd4565b92915050565b6000815190506111a881611deb565b92915050565b6000602082840312156111c057600080fd5b60006111ce84828501611063565b91505092915050565b600080600080608085870312156111ed57600080fd5b60006111fb8782880161104e565b945050602061120c8782880161104e565b935050604061121d8782880161116f565b925050606061122e8782880161116f565b91505092959194509250565b6000806040838503121561124d57600080fd5b600061125b8582860161104e565b925050602061126c8582860161116f565b9150509250929050565b60008060008060006080868803121561128e57600080fd5b600061129c8882890161104e565b95505060206112ad8882890161116f565b94505060406112be8882890161116f565b935050606086013567ffffffffffffffff8111156112db57600080fd5b6112e788828901611110565b92509250509295509295909350565b60006020828403121561130857600080fd5b600082015167ffffffffffffffff81111561132257600080fd5b61132e84828501611078565b91505092915050565b60006020828403121561134957600080fd5b6000611357848285016110fb565b91505092915050565b60008060006060848603121561137557600080fd5b60006113838682870161115a565b93505060206113948682870161115a565b92505060406113a586828701611199565b9150509250925092565b60006113bb83836113d6565b60208301905092915050565b6113d081611cb6565b82525050565b6113df81611c3a565b82525050565b6113ee81611c3a565b82525050565b61140561140082611c3a565b611d43565b82525050565b600061141682611bd9565b6114208185611bfc565b935061142b83611bc9565b8060005b8381101561145c57815161144388826113af565b975061144e83611bef565b92505060018101905061142f565b5085935050505092915050565b61147a61147582611c58565b611d55565b82525050565b600061148b82611be4565b6114958185611c0d565b93506114a5818560208601611d10565b6114ae81611d71565b840191505092915050565b6114c281611cc8565b82525050565b60006114d5600c83611c1e565b91507f556e617574686f72697a656400000000000000000000000000000000000000006000830152602082019050919050565b6000611515601b83611c1e565b91507f536166654d6174683a206164646974696f6e206f766572666c6f7700000000006000830152602082019050919050565b6000611555602c83611c1e565b91507f556e697377617056324c6962726172793a20494e53554646494349454e545f4f60008301527f55545055545f414d4f554e5400000000000000000000000000000000000000006020830152604082019050919050565b60006115bb602583611c1e565b91507f556e697377617056324c6962726172793a204944454e544943414c5f4144445260008301527f45535345530000000000000000000000000000000000000000000000000000006020830152604082019050919050565b6000611621601e83611c1e565b91507f536166654d6174683a207375627472616374696f6e206f766572666c6f7700006000830152602082019050919050565b6000611661602083611c2f565b91507f96e8ac4277198ff8b6f785478aa9a39f403cb768dd02cbee326c3e7da348845f6000830152602082019050919050565b60006116a1601e83611c1e565b91507f556e697377617056324c6962726172793a20494e56414c49445f5041544800006000830152602082019050919050565b60006116e1602883611c1e565b91507f556e697377617056324c6962726172793a20494e53554646494349454e545f4c60008301527f49515549444954590000000000000000000000000000000000000000000000006020830152604082019050919050565b6000611747600183611c2f565b91507fff000000000000000000000000000000000000000000000000000000000000006000830152600182019050919050565b6000611787602183611c1e565b91507f536166654d6174683a206d756c7469706c69636174696f6e206f766572666c6f60008301527f77000000000000000000000000000000000000000000000000000000000000006020830152604082019050919050565b60006117ed601883611c1e565b91507f5468697320706f6f6c20646f6573206e6f7420657869737400000000000000006000830152602082019050919050565b600061182d601e83611c1e565b91507f556e697377617056324c6962726172793a205a45524f5f4144445245535300006000830152602082019050919050565b61186981611c9c565b82525050565b600061187b82856113f4565b60148201915061188b82846113f4565b6014820191508190509392505050565b60006118a68261173a565b91506118b282856113f4565b6014820191506118c28284611469565b6020820191506118d182611654565b91508190509392505050565b60006020820190506118f260008301846113e5565b92915050565b600060408201905061190d60008301856113c7565b61191a6020830184611860565b9392505050565b600060408201905061193660008301856113e5565b61194360208301846113e5565b9392505050565b600060408201905061195f60008301856113e5565b61196c6020830184611860565b9392505050565b600060208201905061198860008301846114b9565b92915050565b600060208201905081810360008301526119a7816114c8565b9050919050565b600060208201905081810360008301526119c781611508565b9050919050565b600060208201905081810360008301526119e781611548565b9050919050565b60006020820190508181036000830152611a07816115ae565b9050919050565b60006020820190508181036000830152611a2781611614565b9050919050565b60006020820190508181036000830152611a4781611694565b9050919050565b60006020820190508181036000830152611a67816116d4565b9050919050565b60006020820190508181036000830152611a878161177a565b9050919050565b60006020820190508181036000830152611aa7816117e0565b9050919050565b60006020820190508181036000830152611ac781611820565b9050919050565b6000608082019050611ae36000830187611860565b611af06020830186611860565b611afd60408301856113e5565b8181036060830152611b0f8184611480565b905095945050505050565b600060a082019050611b2f6000830188611860565b611b3c6020830187611860565b8181036040830152611b4e818661140b565b9050611b5d60608301856113c7565b611b6a6080830184611860565b9695505050505050565b6000604051905081810181811067ffffffffffffffff82111715611b9757600080fd5b8060405250919050565b600067ffffffffffffffff821115611bb857600080fd5b602082029050602081019050919050565b6000819050602082019050919050565b600081519050919050565b600081519050919050565b6000602082019050919050565b600082825260208201905092915050565b600082825260208201905092915050565b600082825260208201905092915050565b600081905092915050565b6000611c4582611c7c565b9050919050565b60008115159050919050565b6000819050919050565b60006dffffffffffffffffffffffffffff82169050919050565b600073ffffffffffffffffffffffffffffffffffffffff82169050919050565b6000819050919050565b600063ffffffff82169050919050565b6000611cc182611cec565b9050919050565b6000611cd382611cda565b9050919050565b6000611ce582611c7c565b9050919050565b6000611cf782611cfe565b9050919050565b6000611d0982611c7c565b9050919050565b60005b83811015611d2e578082015181840152602081019050611d13565b83811115611d3d576000848401525b50505050565b6000611d4e82611d5f565b9050919050565b6000819050919050565b6000611d6a82611d82565b9050919050565b6000601f19601f8301169050919050565b60008160601b9050919050565b611d9881611c3a565b8114611da357600080fd5b50565b611daf81611c4c565b8114611dba57600080fd5b50565b611dc681611c62565b8114611dd157600080fd5b50565b611ddd81611c9c565b8114611de857600080fd5b50565b611df481611ca6565b8114611dff57600080fd5b5056fea264697066735822122036fdfbd9782b9b3fb0644ff81cb5a743ba8f6236992017a2e4ed9806ceea414464736f6c634300060c0033",
  "immutableReferences": {},
  "source": "pragma solidity ^0.6.6;\npragma experimental ABIEncoderV2;\n\nimport './UniswapV2Library.sol';\nimport '../interfaces/IUniswapV2Router02.sol';\nimport '../interfaces/IUniswapV2Pair.sol';\nimport '../interfaces/IUniswapV2Factory.sol';\nimport '../interfaces/IERC20.sol';\n\ncontract UniswapTradeBot {\n\taddress public factory; // central hub of UniSwap ecosystem that provides info about liquidity pools\n\tuint constant deadline = 10 days; // Date the trade is due\n  \tIUniswapV2Router02 public sushiRouter; // Central smart contract in the SushiSwap ecosystem that is used to trade in liquidity pools\n\n\taddress payable owner;\n\n\tconstructor(address _factory, address _sushiRouter) public {\n\t\tfactory = _factory;\n\t\tsushiRouter = IUniswapV2Router02(_sushiRouter);\n\t\towner = msg.sender;\n\t}\n\n\t/*=============================================================================================================================================================================================\n\tUNISWAP FLASHLOANS\n\t=============================================================================================================================================================================================*/\n\t/*\n\t\ttoken0 - Token we will borrow (i.e. DAI)\n\t\ttoken1 - Token we will trade token0 for (i.e. ETH)\n\t\tamount0 - Amount we're going to borrow\n\t\tamount1 - Will be 0 for now\n\t\tpairAddress - Address of the pair smart contract of UniSwap for the two tokens (address of the liquidity pool)\n\t*/\n\tfunction startArbitrage(address token0, address token1, uint amount0, uint amount1) external {\n\t    address pairAddress = IUniswapV2Factory(factory).getPair(token0, token1);\n\t    require(pairAddress != address(0), 'This pool does not exist');\n\t    IUniswapV2Pair(pairAddress).swap(amount0, amount1, address(this), bytes('not empty'));\n\t}\n\n\t/*\n\t\t_sender - The address that trigger the flash loan\n\t\t_amount0 - The amount borrowed (i.e. DAI)\n\t\t_amount1 - 0 (i.e. ETH)\n\t\taddress - An array of addresses used to complete the trade\n\t\tamountToken - This will be equal to \"_amount0\"\n\t\ttoken0 - Address of the first token in UniSwap's liquidity pool\n\t\ttoken1 - Address of the second token in UniSwap's liquidity pool\n\t\tIERC20 token - A pointer to the token we're going to sell on SushiSwap\n\t\tamountRequired - The amount of the initial loan that must be reimbursed for the Flash loan to UniSwap\n\n\t\tDescription: Borrow DAI on Uni -> Exchange DAI for ETH on Sushi -> Sell ETH for DAI on Uni\n\t*/\n\tfunction uniswapV2Call(address _sender, uint _amount0, uint _amount1, bytes calldata _data) external {\n\t    address[] memory path = new address[](2);\n\t    uint amountToken = _amount0 == 0 ? _amount1 : _amount0; // One of the amounts are 0, the other amount is what we want to borrow.\n\t    \n\t    address token0 = IUniswapV2Pair(msg.sender).token0();\n\t    address token1 = IUniswapV2Pair(msg.sender).token1();\n\n\t    require(msg.sender == UniswapV2Library.pairFor(factory, token0, token1), 'Unauthorized'); \n\t    require(_amount0 == 0 || _amount1 == 0);\n\n\t    path[0] = _amount0 == 0 ? token1 : token0; // What we're going to borrow (i.e. DAI)\n\t    path[1] = _amount0 == 0 ? token0 : token1; // What we're going to buy with what's borrowed (i.e. ETH)\n\n\t    IERC20 token = IERC20(_amount0 == 0 ? token1 : token0); // (i.e. DAI because amount0 is not 0)\n\t    \n\t    token.approve(address(sushiRouter), amountToken); // Approve sushiRouter to spend (i.e. take DAI) certain amount of tokens (i.e. amountToken)\n\n\t    /* Given an output asset amount and an array of token addresses, calculates all preceding minimum input token amounts by calling getReserves for each pair of token addresses in the path in turn, and using these to call getAmountIn.\n\t    amountToken is the amount of DAI you get in exchange for ETH (in path[0]). That's how much is required.\n\t    */\n\t    uint amountRequired = UniswapV2Library.getAmountsIn(factory, amountToken, path)[0]; // (i.e. DAI needed to pay back loan; the amountRequired should be ETH)\n\t    /* Swaps an exact amount of input tokens for as many output tokens as possible, along the route determined by the path. \n\t    The first element of path is the input token, the last is the output token, and any intermediate elements \n\t    represent intermediate pairs to trade through (if, for example, a direct pair does not exist). \n\t\tWe take amountToken, which is the amount sushi is allowed to spend (i.e. DAI), amountRequired is the minimum amount of output tokens that must be received\n\t\tfor transaction to NOT revert, we end up with ETH at the end of this line.\n\t    */\n\t    uint amountReceived = sushiRouter.swapExactTokensForTokens(amountToken, amountRequired, path, msg.sender, deadline)[1]; // We get ETH in return.\n\n\t    // We borrowed DAI, exchanged the DAI for ETH in amountReceived, and return back ETH (as the swap...)\n\t    IERC20 otherToken = IERC20(_amount0 == 0 ? token0 : token1); // (i.e. ETH)\n\t    otherToken.transfer(msg.sender, amountRequired); // Reimburse Loan in ETH\n\t    otherToken.transfer(_sender, amountReceived - amountRequired); // Keep Profit in ETH\n  \t}\n\n  \tfunction withdrawToken(address _tokenContract, uint256 _amount) external {\n  \t\trequire(msg.sender == owner, \"Unauthorized\");\n        IERC20 tokenContract = IERC20(_tokenContract);\n        \n        // transfer the token from address of this contract\n        // to address of the user (executing the withdrawToken() function)\n        tokenContract.transfer(owner, _amount);\n    }\n}",
  "sourcePath": "/Users/donaldlee/Developer/price-bot/contracts/UniswapTradeBot.sol",
  "compiler": {
    "name": "solc",
    "version": "0.6.12+commit.27d51765.Emscripten.clang"
  },
  "schemaVersion": "3.3.3",
  "updatedAt": "2021-08-21T20:56:45.300Z",
  "devdoc": {
    "kind": "dev",
    "methods": {},
    "version": 1
  },
  "userdoc": {
    "kind": "user",
    "methods": {},
    "version": 1
  }
}